:020000040000FA
:0600000062EF1AF012008D
:0600080004EF08F01200F5
:060018000CEF08F01200DD
:0610000062EF1AF012007D
:021006001200D6
:06100800DEEF09F012000A
:02100E000100DF
:0210100000429C
:0610180032EF0AF01200A5
:02101E000200CE
:101020000E100000F001000004000000EE3400008B
:08103000430000000C00000069
:0810380046A204D08250010B16
:10104000010A12008250010B120046B21200F29EF9
:101050008B909480F28E120046A204D0F29E8B8078
:101060009480F28E120046A202D08B9094901200CF
:1010700038EC10F046A40AD08AD8100E405C03E287
:1010800016EC10F003D03F0E3E6E3F6A3DEF10F0BD
:1010900038EC10F046A00AD07AD8100E405C03E27B
:1010A00016EC10F003D03F0E3E6E3F6A3DEF10F09D
:1010B000020E2F5C02E2020E2F6E4C6A120082BCFE
:1010C00003D02F50F5DF010C2F5001E0010C000C74
:1010D0001F501E6E12001E501F5C01E1000C010C1F
:1010E0001E504EEC10F004E6900E5A5C000E5B5859
:1010F00001E3000C010C5B6AA00E1E1803E15B50BB
:1011000001E1000C010C1F501E6E1F505A6E5B6AED
:101110005B3406E25A509008000E5B5401E2120064
:1011200073EC10F0FE0EEF6E73EC10F0EF6812002F
:101130001F501E6E12001350010B06E0400E4614A5
:1011400003E11E501F6E12001F501E6E120013A0EE
:1011500003D01E501F6E12001F501E6E120038EC7E
:1011600010F01E505A6E5B6AA00E1E1803E15B5011
:1011700001E1DEDFB0DF000905E073EC10F0FE0EE8
:10118000DBCFEFFF1F5001E0B4D83DEF10F038EC9B
:1011900010F0E6521350010B455C07E0455002E0A9
:1011A000456A03D0010E436E456E1E501F5C01E080
:1011B0009DD096DF000901E199D040501FE0A3DFE8
:1011C000040E13EC10F0305013EC10F0315013EC0F
:1011D00010F0FD0E77EC10F0020E405EDF6A40501A
:1011E000DF5CE3E2020E402461EC10F0EF50E66EAB
:1011F000405061EC10F058EC10F0F1D7435030E063
:1012000082DF100E6FEC10F0FE0E13EC10F0020EE9
:1012100013EC10F0150E13EC10F0E6686BEC10F008
:10122000465013EC10F04A5013EC10F0F3C1E6FFF7
:101230006BEC10F0F1C1E6FF6BEC10F0F2C1E6FFD1
:101240006BEC10F0F0C1E6FF6BEC10F04BEC10F023
:10125000010E13EC10F0010E77EC10F0436AA5D7E5
:10126000445044E050DF110E6FEC10F0FC0E13EC14
:1012700010F0475013EC10F0485013EC10F04950A8
:1012800013EC10F0D9DE000902E0040E01D0000ECC
:101290005B6E8250400B02E1020E01D0000E5A6ECE
:1012A0002F5002E0010E01D0000E5A105B1013EC1B
:1012B00010F09E5013EC10F0A15013EC10F0C85039
:1012C00013EC10F0C65013EC10F0C55013EC10F0F6
:1012D000C75013EC10F0945013EC10F08B5013EC3B
:1012E00010F0825077EC10F0446A5FD7E5523DEF82
:1012F00010F038EC10F0030EE12613B002D01F6A94
:10130000E7DE1E501F5C01E142DF0C504DE11F5033
:101310004BE01F50200802E2200E01D01F50E76E64
:10132000010EE7CFDBFFDB501E5CE76E020EE7CF5E
:10133000DBFF010EDB50000837E2DF6A010EDB50F5
:10134000DF5C0EE2DF5032EC10F0EF50E66EDF5063
:10135000EA6ACE0FE96E000EEA2258EC10F0EED7E2
:10136000010EDBCFE6FFCE0EE66E000EE66EC3EC9E
:1013700017F0E552E552E552DF6A020EDB50DF5C02
:101380000DE2010EDB50DF2432EC10F0EF50E66E80
:10139000DF5032EC10F058EC10F0EFD7020EDB50BB
:1013A0001E6E010EDB501F5E11EC18F0030EE15CA7
:1013B00002E2E16AE552E16E3DEF10F0DACFE4FFC0
:1013C000E2CFDAFFE9CFE4FFEACFE4FFF6CFE4FFB4
:1013D000F7CFE4FFF5CFE4FFF3CFE4FFF4CFE4FF72
:1013E000FACFE4FF00EE4FF00B0EE80403E3EECF7C
:1013F000E4FFFBD700EE5AF0030EE80403E3EECF60
:10140000E4FFFBD7E652F2A407D04B5001E04B06B5
:101410002F5001E02F06F294DEEC10F0E55200EEC2
:101420005CF0030EE80403E3E5CFEDFFFBD700EE2D
:1014300059F00B0EE80403E3E5CFEDFFFBD7E5CF52
:10144000FAFFE5CFF4FFE5CFF3FFE5CFF5FFE5CFFA
:10145000F7FFE5CFF6FFE5CFEAFFE5CFE9FFE5CF00
:10146000DAFF1100D8CFE4FFE0CFE4FFE46EDACF7B
:10147000E4FFE652E552E5CFDAFFE550E5CFE0FFC5
:10148000E5CFD8FF1000E66AE6EC18F0E552060E4C
:1014900041EC10F00101F36F070E41EC10F0010177
:1014A000F06F080E41EC10F00101F16F090E41ECF4
:1014B00010F00101F26F0A0E41EC10F07F0B466E46
:1014C0000B0E41EC10F04A6E0BD816D87AEC10F0E7
:1014D0000BEC12F0C40ED56EF28AF29400DAFED74D
:1014E0000F0EC1121200206A216AF2DD476A050E52
:1014F000485C01E1486A12008B9C949C8B9E949EF0
:10150000406A1E6A1F6A0ED8EEDFE10E8B16941633
:1015100036D8948E34D833D832D831D830D8948C49
:1015200058EF08F094807E987F908B8C7F928B8E02
:101530009398939A8A988A9A9388938AF298F292C7
:10154000C76A0D0E41EC10F0C86E280EC66EC56E4F
:1015500025EF08F0D880000E0201DF55C20EE055DD
:10156000010EE155000EE25501E21200DFC2D8F291
:10157000E0C2D9F2E1C2DAF2E2C2DBF2120038ECE8
:1015800010F0020EE126DF6ADF504EEC10F004E6A8
:10159000800E5A5C000E5B5812E2010EDB6ADB50D3
:1015A0004EEC10F004E6800E5A5C000E5B5805E22B
:1015B0008B508B6E010EDB2AF2D7DF2AE5D7020EA5
:1015C000E15C02E2E16AE552E16E3DEF10F0D9CF55
:1015D000E6FFE1CFD9FFE652D2DFD1DFD0DFCFDFA8
:1015E000606A6492646ADF6AFF0EDF5C09E2E868A1
:1015F000E85004E0E80600D000D0FAD7DF2AF4D79C
:10160000BEDFBDDFBCDFBBDFE552E552E7CFD9FF70
:1016100012002950130A19E0010A10E0030A06E03B
:10162000010A01E01CD0D3DFFF001AD08B9C949CF0
:10163000A6DF948C3DDD190E2F6E12D08B9E949EEA
:101640009EDF948E9CDF34DD0BD08B9C949C8B9E14
:10165000949E95DFC00E941292DF2ADD01D000D057
:10166000486A1200D9CFE6FFE1CFD9FF040EE12688
:1016700029500F0A01E1F5D0010A01E1EDD0030A7A
:1016800001E1C0D0040A01E1ABD0010A01E19CD024
:101690000F0A01E186D0010A67E0030A48E0010A67
:1016A00043E0070A2EE0010A06E0020A01E00AD13F
:1016B000010E436E0AD1BE0E2C5C22E1EF0E2D5CB2
:1016C0001FE12B1C46162A502B144612468ABDDCFD
:1016D000010E436E46AE14D00A0EE66E2FEC19F0E2
:1016E000E552DF6E2B1CDF162A502B14DF12DF8A27
:1016F000DFCFE6FF0A0EE66E3EEC19F0E552E5524A
:10170000E4D0BE0E2C5C0FE1EF0E2D5C0CE12A50F4
:101710004A6E46AE08D04A50E66E0B0EE66E3EECC0
:1017200019F0E552E552D1D0010E446ECED0BE0E76
:101730002C5C19E1EF0E2D5C16E12AC0F1F12BC0F3
:10174000F2F146AE10D0F1C1E6FF080EE66E3EECB7
:1017500019F0E552E552F2C1E6FF090EE66E3EECE5
:1017600019F0E552E552B1D0BE0E2C5C19E1EF0E36
:101770002D5C16E12AC0F3F12BC0F0F146AE10D07B
:10178000F3C1E6FF060EE66E3EEC19F0E552E552B7
:10179000F0C1E6FF070EE66E3EEC19F0E552E552A9
:1017A00094D0BE0E2C5C0FE1EF0E2D5C0CE12A50A4
:1017B000C86E46AE08D02A50E66E0D0EE66E3EECC0
:1017C00019F0E552E55281D0BE0E2C5C08E1EF0E17
:1017D0002D5C05E1010EE66EE6EC18F0E55275D0E1
:1017E000010E2B5C0EE2BE0E2C5C0BE1EF0E2D5CAD
:1017F00008E12B50E66E0C0EE66E3EEC19F0E55259
:10180000E55263D0E4DEF26AF50EF16EC00EF06EC2
:101810009D6AA06A9E6AA16A7F0E9F6EFE0EA26EEE
:10182000606A626A646A616A0F015C6B0F01536BE4
:101830000F01546B0F01556B0F01566B0F01576B66
:101840000F01586B0F01596B0F015A6B11EE00F02D
:1018500021EE00F0BBEF07F0BADE7F9000EF00F062
:1018600034D0010E2BC0DBFF020EDB6A0F0EF36ECD
:10187000030EF3CFDBFF2A505A6E5B6AD950020F7A
:10188000E96EDACFEAFF5A50EE265B50ED22010EE8
:10189000DB502C145B6E010EDB1C5A6E020EDBCF8C
:1018A000E9FF030EDBCFEAFFEF505A145B10E66E40
:1018B000020EDBCFE9FF030EDBCFEAFFE552E75074
:1018C000EF6E03D0060E486E00D0040EE15C02E21B
:1018D000E16AE552E16EE552E7CFD9FF120038EC3C
:1018E00010F0020EE126DF6A03DB200EE76E00181F
:1018F000E8AE02D0E73402D0E750005C01E2F1D25A
:101900006450020B01E0EDD21C501D5C01E31C6A27
:101910001C5010E1400EE66E600EE66E000EE66EA4
:1019200085EC17F0E552E552E5521C6EE8500008D0
:1019300001E21D6A5FEC08F01C501D5C61E213B00F
:1019400003D0486A1C6A5CD04850060A59E0030A72
:1019500057E0010A43E0070A22E0010A10E0030A07
:1019600007E0010AE9E1B3DBFE08E6E1010E34D04D
:10197000AEDBFF0802E1020E2FD0486ADDD71D5012
:101980006ADB216EE85003E12E6A040E25D021C0E7
:10199000EAF1276A010E266E1D2A030E1DD0215082
:1019A0001AE0040EE76E2618E8AE02D0E73402D043
:1019B000E750265C10E28BDBE66E2650262AE96EA5
:1019C000EA6AE9BEEA68EA0EE926010EEA22E55271
:1019D000E750EF6EB1D7050E486EAED778DBE66EF6
:1019E0002E502E2AEA6A280FE96E000EEA22E552EE
:1019F000E750EF6E060E2E5C9FE1486A33DE9CD7FF
:101A0000C7EC08F00C5005E11F5003E072DCC7EC96
:101A100008F0DF6ADFCF5AF0400EE76E5A18E8AEE2
:101A200002D0E73402D0E7505A5C01E358D2495063
:101A30001A0A01E143D2030A01E139D2010A01E1A4
:101A400023D20F0A01E112D2010A01E1D1D1030A26
:101A500001E1B8D1010A01E18CD1070A01E16ED19F
:101A6000010A01E14BD1030A01E131D1010A01E18F
:101A70001FD1190A01E107D1010A01E102D10F0AC0
:101A800001E1EDD0010A01E1E6D0030A01E1CBD08A
:101A9000010A01E196D0070A01E181D0010A6AE05A
:101AA000030A5BE0010A01E018D2C596C7EC08F012
:101AB0002F5001E014D24B5001E011D246A810D0B3
:101AC000050E485C01E00BD2486A2150000801E392
:101AD00006D21C501D5C01E302D221061D2AF5D757
:101AE000236A246A256A46A606D04C2A4A504C5CD2
:101AF0000AE34C6A08D01CEC08F0000902E0010E71
:101B000001D0000E4C6E060E485C03E182DD486A8F
:101B1000E4D14C5016E1050E485C13E1030EE76E6C
:101B20002618E8AE02D0E73402D0E750265C07E37F
:101B3000010E0101EB150209246EECC123F0010E28
:101B4000B4D170EC08F0000901E1C9D11CEC08F037
:101B5000000901E1C4D1100EA8D1AFDA04E0080EEB
:101B6000496E040E9AD1A196C69E9E96C5808B861C
:101B7000020E9BD1A1A604D0A196C69E080EC3D08A
:101B8000C6AE04D0A196C69E090EBDD09EA6A5D114
:101B90009E960101F351E824C96E030E86D1A1A6D9
:101BA00003D074DA0A0E79D1C6AE03D06FDA0B0E09
:101BB00074D19EA692D1C5AC46D0090E496E0C0ECA
:101BC0006CD1215042E01C501D5C06E313B087D15C
:101BD000090E496E0E0E61D170DA04E0080E496EEE
:101BE0000D0E5BD19E9621062650E76E2718E8AEB3
:101BF00002D0E73402D0E750275C0AE22750272AB8
:101C0000E96EEA6AE9BEEA68EA0EE926010E06D044
:101C10001D501D2AEA6A600FE96E000EEA22EF509D
:101C2000C96E050E42D1A1A603D030DA0F0E35D110
:101C3000C6AE03D02BDA100E30D19EA64ED1C5BC55
:101C400006D0215002E0040E30D1060E2ED1090E2E
:101C5000496E110E22D19E96C584070E26D1A1A6EB
:101C600003D014DA120E19D1C6AE03D00FDA130E58
:101C700014D19EA632D1E66A38EC08F0E552090E7E
:101C800014D1090E15D14B5001E029D18B96050EC8
:101C9000485C01E1486A2150000806E21C501D5CC6
:101CA00003E221061D2AF7D7266AF2C14BF013D1B1
:101CB00004DA04E0190E496E050EEFD033EC08F09B
:101CC000A196C69E9E96C5808B86110EEED0A1A6CB
:101CD00006D0A196C69E190E496E180EDED0C6AE6D
:101CE00003D0E1D9190ED9D09EA6F7D09E96010156
:101CF000F351E8240109C96E120ED7D0A1A605D070
:101D0000A196C69E1A0E496EC8D0C6AE03D0CBD9D6
:101D10001B0EC3D09EA6E1D0C5BC0CD01F0EC514AF
:101D200004E01A0E496E1D0EB8D09E96C790C58667
:101D3000130EBBD01A0E496E1C0EAFD0C6AC06D027
:101D4000C69CC5961A0E496E1E0EA7D0B6D905E0E0
:101D5000C596190E496E1F0EA0D09EA6BED0C59680
:101D6000C950206E010E256EC790C59AC588140E05
:101D70009CD09EA6B2D0FF0E205C04E11A0E496EE4
:101D8000200E8BD0205005E1190E496E4B6A230EB0
:101D900084D0040E205C04E21A0E496E220E7DD01F
:101DA00020507CD904E69C0E5A5C000E5B5804E37C
:101DB0001A0E496E210E71D083EC08F0205033D9F1
:101DC000200658D0205010E07BEC08F0000905E018
:101DD0009E96C790C586160E68D01F5001E07FD032
:101DE0001A0E496E240E59D01A0E496E250E55D082
:101DF000C6AC06D0C69CC5961A0E496E260E4DD0AE
:101E00005CD905E0C596190E496E270E46D09EA6F0
:101E100064D0010EC9CFDBFFC596030EE76E25180F
:101E2000E8AE02D0E73402D0E750255C0FE225048B
:101E300005E11D5010D9010B246E07D0020E255C60
:101E400004E124821D5007D9236E252A2006C7905D
:101E5000205002E0C59A01D0C58AC588170E496E88
:101E6000010EDBCFE6FFAFEC08F01AD09EA635D00E
:101E7000205002E0150E19D02CEC08F09E96C58477
:101E80009BEC08F0180E11D0A1A603D00CD9280E97
:101E900004D0C6AE07D007D9290EE66E48EC08F08C
:101EA000E5521BD09EA619D01A0E496E16D01A0EF6
:101EB000496EC69AC68AF0C14BF00FD02CEC08F0E0
:101EC0004B500DE1205004E098EC08F0C7EC08F00E
:101ED0008B96F1C14BF0496A02D0DF2A9BD579EC91
:101EE00009F0020EE15C02E2E16AE552E16EC5D062
:101EF0004D504E1004E1100E4D6E270E4E6E4D06E5
:101F0000000E4E5A64A204D04D504E101EE114D063
:101F100000500AE0000403E0020E005C02E18B8244
:101F20001200040E005C02E18B921200100E005CA5
:101F300005E14D504E1009E18B721200200E005C3D
:101F400004E14D504E1001E18B721200120012009C
:101F500012001200F6EF16F0120046EF17F006041A
:101F60001DE107041BE1A094F2DF6492076A100EE2
:101F7000416E0E0E426E4106000E425A4150421012
:101F8000FAE16484080E416E070E426E4106000EAF
:101F9000425A41504210FAE16494A084120068D879
:101FA000FD0EDBCF55F0FE0EDBCF56F0050E5518BB
:101FB00001E1565036E0E868551802E17F0E5618E8
:101FC0002FE0030E551801E1565028E0020E551877
:101FD00001E1565021E0010E551801E156501AE07A
:101FE000740E551801E1565013E0750E551801E1B5
:101FF00056500CE0730E551801E1565005E0720E74
:1020000055180FE156500DD0A3DF0BD09FDF09D03C
:102010009EDF07D0A2DF05D09FDF03D09BDF01D07A
:1020200098DF010E2AD0E66E6BEF10F0030E241439
:102030005A6EFE0EDB50040DF3505A10E66E4050FF
:10204000402A3FD8E552E750EF6E4050402A39D839
:1020500023C0EFFF1200EA6A600FE96E000EEA2269
:10206000EF501200EA6A400FE96E010EEA221200F8
:10207000D9CFE6FFE1CFD9FF1200E552E7CFD9FF74
:102080001200E66E2FEC19F0E5521200A196C69EE2
:10209000090E496E1200E66A6BEF10F05A6E5B6A29
:1020A000D8905B501200A196C69E1A0E496E12007F
:1020B000E552E750EF6EDF2A12005FEC08F00009EE
:1020C0001200EA6A300FE96E000EEA2212001D507B
:1020D0001D2A2BEF10F0AFEC08F0E5521200A3DF41
:1020E000DADF4BEF10F01E501E2A32EF10F09BDFAC
:0420F000A7EF08F05E
:0C20F400C1EC16F0A0940F015F6B626A53
:10210000536BBBEC16F045EC16F0DF6ADF505A6EED
:102110005B6A0C0E5A5C000E5B5810E2DF50040D37
:10212000F3CFE9FFF4CFEAFF000EE926020EEA2220
:10213000EE6AEE6AEE6AEE6ADF2AE8D7648C0F0177
:102140005C6B6498649C62A607D062960001B26BD7
:10215000B76BB86BB96BF7D70001010EC66FC76FCD
:10216000C86BC96B076ADF6A030EDF5C11E2EA6ABB
:10217000DF34C4EC16F0EA22EE6AED6AEA6ADF3474
:10218000CBEC16F0EA22EE6AED6A0EEC16F0ECD714
:102190000001080EAA6F020EAB6F0F01160E536FEF
:1021A0000201300E026F020E036F200E016F840ECB
:1021B000006F016A006AE552E0EF15F0C1EC16F01D
:1021C000000407E164BA05D0626A60806088020E8C
:1021D000006E6250040B05E06050040B02E0629454
:1021E00037DB64B244D06250010B08E06050010B51
:1021F00005E080DFA084040E006E62906250100B38
:1022000005E06050100B02E01ADB629862AC0FD060
:1022100060AC05D05DEC16F0730ECDEC15F0629C51
:102220000001C45101E0C407C45101E105D9625065
:10223000200B04E06050200B01E0F0DA6250020B4A
:102240000CE06050020B09E05DEC16F0E6687F0ED2
:10225000E66ED2EC16F00F015F6B040EE76E00180D
:10226000E8AE02D0E73402D0E750005C02E2A1946D
:102270002DD060A62AD0DF6A040EDF5C26E262A6BB
:1022800024D06350086E0850780BE842E842E842D8
:10229000096E629608B404D00950D9EC16F003D048
:1022A0000950DEEC16F0EA22EF70095002E1DBDAA9
:1022B0000AD0000EE66EE66A080EE66E000EE66EC6
:1022C000720ECDEC15F0DF2AD7D7A194E552E0EFDE
:1022D00015F095EC16F0FD0EDBA403D0E66A4DEC8C
:1022E00016F0FD0EDBA204D0010EE66E4DEC16F0EA
:1022F000FE0EDB505B6A530F5A6E0F0E3FEC16F06A
:10230000D1EC15F0FD0EDBCFEFFF020EE15C02E237
:10231000E16AE552E16EE0EF15F095EC16F0FD0E86
:10232000DB5003E0C8EC15F002D0FFEC15F02BEC0D
:1023300016F0D9CFE9FFDACFEAFFEE50ED1003E156
:10234000F36AF46A28D0D1EC15F0EDEC16F0FB0E30
:10235000DBCFEEFFFC0EDBCFEDFFD1EC15F0EE5244
:10236000FA0EDBCFEFFF400EE3EC16F0880EF2EC36
:1023700016F0FD0EDB5003E0C8EC15F002D0FFECC8
:1023800015F0EA22EF74DECF5AF0DDCF5BF05AC0D1
:10239000F3FF5BC0F4FF020EE15C02E2E16AE5528A
:1023A000E16EE0EF15F095EC16F0FE0EDB5003E168
:1023B000A3EC16F009D004EC16F083EC16F004EC54
:1023C00016F0010F83EC16F0020EE15C02E2E16A06
:1023D000E552E16EE0EF15F0DBEC15F064A816D0E5
:1023E000B4EC16F0400EEE16EE6AEE6AEE6AB4EC4D
:1023F00016F0EE7CCDDBEA22EF74400E5A6EB4ECA0
:1024000016F05A50EF16B4EC16F0EF7CD9D3646A8C
:10241000606A006A120000500EE1646A606A45EC6E
:1024200016F0D08EA284A084F28E64B602D06486A8
:10243000FCD7010E006E12000001C65122E1010E10
:10244000C66FC7511EE1010EC76F020E055C07E1A2
:10245000ADDBEE52EF6AAADBC80EEF6E1200050488
:1024600010E10A6AB9DBEE52200EEF6EB5DB8FEC9D
:1024700016F0B2DB840EEF6E010E0A6E85DB800E65
:10248000EF6E12000001C86BC96B020E055C06E11D
:10249000E7EC16F0A6DB7EEC16F010D0B35102018B
:1024A000365D0001B4510201375904E236C2B3F07F
:1024B00037C2B4F061D87ADB94DB78DBC80EEF6EFC
:1024C000120095EC16F0000EDE6E020EDD6E9CDB47
:1024D000040DF4CF5BF0D9CFE9FFDACFEAFFF35078
:1024E000EE265B50ED225DDBEF9EFD0EDB5002E140
:1024F00086DB01D04DDBEA22DECFEEFFDDCFEDFF44
:1025000050DBEF9C4EDB040EE926000EEA22EF8C36
:10251000020EE15C02E2E16AE552E16E51D3649899
:102520000001B2BF0DD0B7AF09D0020E056EC95180
:1025300001E1A8DF0001C76BC66B1200A3EF16F024
:10254000020130AF0DD0010E056E0001C85101E14E
:1025500099DF0001C76BC66BC5510DE11CEF12F08E
:10256000020E056E11DB840EEF6E0001C76BC66BA9
:10257000C55101E161DF1200C1EC16F0200EDF6EE3
:102580000001B35D000EB4590AE2B3C0DFFF04508E
:1025900002E1010E03D0040402E1020E046EDF50DA
:1025A0005B6AE850B35DB36F5B50B459B46FFEDA49
:1025B000EE52DFCFEFFF380EBC6F020EBD6FB2B12F
:1025C0000DD0DF5017E0B0C0F6FFB1C0F7FFB02B61
:1025D000000EB1230800F55031DBF3D7DF500AE0DD
:1025E000B0C0E9FFB1C0EAFFB02B000EB123EF503D
:1025F00025DBF4D7E552E4D298DBEEDAEE52EFCFEA
:10260000DFFFDFCF5AF05A500001B85D000EB95914
:1026100002E2B8C0DFFFDF505A6E5B6AE850B85D77
:10262000B86F5B50B959B96F010EDB6ADF50F36EBA
:10263000010EDBCFF4FFF350F45C16E2010EDB5029
:10264000EA6A380FE96E020EEA22EF50E66EB5C074
:10265000E9FFB6C0EAFFB52B000EB623E552E750FE
:10266000EF6E010EDB2AE2D7000ED880B855000EBF
:10267000B9550DE2ACDBB5DAAFDAEF50400B03E150
:102680003DDBC80E02D03ADB880EEF6E12D07CDA4A
:10269000840EEF6EBA51BB1107E005D0BBC0FAFF44
:1026A0000001BA51F96EFADF0001B79FC55101E18F
:1026B000C3DE020EE15C02E2E16AE552E16E80D225
:1026C00060DB0001B28F57DB300EE66EE66AE66A29
:1026D000000EE66E020E8BDA648CDF6A030EDF5C9E
:1026E00002E29CDAFBD705DB020EE66E000E7FDA13
:1026F000649C0001080EAA6F020EAB6F000EA06F63
:10270000020EA16FA0C0A2F0A36F32C201F001506F
:1027100002E1100E0AD0010EE66EE66A010EE66EC8
:10272000000EE66E010E39DA200E006EE55248D238
:10273000800E0201305D38E10001C00EB26F02016F
:102740003351030A1AE0010A09E0030A2BE10001F0
:10275000080EB06F330EB16F120E1ED0BCDAC90E68
:10276000F626330EA2DA020E0001AEDAF5CFB3F090
:10277000030EAADAF5CFB4F01200030E325D0FE2B9
:10278000AADACB0EF626330E90DAB0C0F6FFB1C04F
:10279000F7FF0800F5500001B36FB46B12000001A1
:1027A000B26B12000001B26B1200BFDA0201386B8B
:1027B000396B30511F0B020A0FE0030A0AE0010ACD
:1027C0001CE10001B28F02013881060416E1388352
:1027D00014D00001B28F11D00001B28F020134BFBA
:1027E00002D0B8DA01D0BBDA36DAC1DA06E0D9D9DC
:1027F000EF50040B02E0010E386F0001B2AF07D0BA
:10280000380EB06F020EB16FB281020EB36F020EBE
:10281000E15C02E2E16AE552E16ED2D10F0153A11F
:102820000CD0DAD9EF50800807E1C0D9EF50840806
:1028300003E1D2D98C0EEF6E5391629A120060843C
:1028400062986482010E076E0CDA750ECDEF15F0FA
:10285000076A07DA740EA1D96492609462A402D068
:102860006294FCD712008DDA00012D0EC46FFD0EAC
:10287000081439E17E0E0814E8407F0B040DF3CFF5
:10288000A0F0F4CFA1F0000EA027020EA123A0C05B
:10289000A2F0A1C0A3F0A2759FD9EF503C0BE84273
:1028A000E8420D081EE1DF6A080EDF5C16E294D9EB
:1028B000020EE926000EBCD9EF50E66EDF50EA6A40
:1028C000300FE96E020EEA22E552E750EF6E84D92E
:1028D00084DAEE2AEF22DF2AE7D77ED920DA0AD877
:1028E00007D023D805D0FD0E0814040801E12BD829
:1028F000E55266D1046A0001C56BC86BC96B0A6AF0
:10290000056A54D9EF9EAA7551D9EF9EAA75F6D9DA
:10291000EF9EB26BB36BB46BB76BB86BB96B4ED841
:10292000A0D9030E3AD98FEF12F0020E055C02E136
:10293000FCEF12F0056A0A5004E126D98C0EEF6E06
:1029400012000A6A12001DDA31D9EF50400B01E083
:10295000010EDF6E0001AA75080E005C09E132C2AB
:102960005CFF0F015C5102E0100E01D0040E006EFE
:10297000050412E11BD935D9FFDD020E045C03E129
:1029800015D9840E07D0DF5003E110D9C80E02D04C
:102990000DD9880EEF6E10D00001B7AF0CD0BA5130
:1029A000BB1107E005D0BBC0FAFF0001BA51F96EB8
:1029B000FADF0001B79F056AE55202D102013051EA
:1029C000600BE842E842E842E842E842000901E0E0
:1029D000120031510C0A45E00B0A3FE00C0A31E0CD
:1029E000010A22E00B0A1EE0020A1CE0030A18E0BA
:1029F000080A10E0010A0CE00F0A08E0030A01E0EF
:102A000012000001B28F080E006E120098EF13F052
:102A100060EF13F00001010EB06F000EB16F0CD02B
:102A2000D5EF13F032EF15F034510001B06FB16BF8
:102A3000020EB027000EB123B281010EB36FB28F28
:102A400012000001B28F02013451EA6A020FE96EEE
:102A5000000EEA2232C2EFFF120003D9020ECDEFC0
:102A600015F01200A8D8050EE126020132050EE18C
:102A700030511F0B00090AE10001B28F030E020161
:102A8000315D03E1010E066E01D0066A325101E0AC
:102A900074D030511F0B020870E134510F0B000944
:102AA0006CE034510F0B020868E3200E005C65E116
:102AB0000001B28F020134BF04D04CD9CCD8D7D892
:102AC00003D04DD9C8D8D7D8EA22020EEFCFDBFF0A
:102AD00009D9010B03E1000EDF9401D0DF8434BF7C
:102AE00002D038D901D03BD9EA22DECFEEFFDDCFCC
:102AF000EDFF030E315D0CE13AD907E034BF02D09F
:102B0000B6D801D0B8D8EA22EF82840E6BD935D07E
:102B1000DF742DD906E045D8EF9E43D8EF8C09D954
:102B200002D03FD8EF8CDF74DDD8020B02E11FD951
:102B30000DE0020134BF02D09AD801D09CD8EA221D
:102B4000EF923B0E5A6E3FD9F4D802D03B0E3BD9E0
:102B5000020134510F0B5B6A530F5A6E0F0E5B224A
:102B6000030E5AC0DBFF040E5BC0DBFF030EDBCF9E
:102B7000E9FF040EDBCFEAFFEF90050EE15C02E215
:102B8000E16AE552E16E1CD022D9C9D87EEF16F079
:102B9000FE0EEA6ADB34C4EF16F0E66EE66AD2EFA8
:102BA00016F0DECFE9FFDDCFEAFF1200AAC0E9FF91
:102BB000ABC0EAFF1200D9CFE6FFE1CFD9FF120088
:102BC000E552E7CFD9FF120034510F0BE96EEA6AE4
:102BD000D890E936EA361200A0C0E9FFA1C0EAFFAA
:102BE0001200FBD8380EEE6E020EED6E1200E66E8D
:102BF00038EC1AF05A6E050EE15E5A501200FE0EC5
:102C0000EA6ADB34CBEF16F0FD0EDB50E8245C6E95
:102C1000FE0EDB50040DF3505C241200DF50CED8C2
:102C2000EA22EF6ADF50C5D8EA22EF6ADF2A1200F3
:102C3000EA22EE50EFCFEAFFE96E1200E66EBCC06A
:102C4000E9FFBDC0EAFFBC2B000EBD23E552E750F3
:102C5000EF6EDF061200EA22EECFDEFFEDCFDDFFE2
:102C60001200000EE66EE66AE66EE66A1200345165
:102C70000F0BD9EF16F034510F0BDEEF16F05B227D
:102C80005AC0DEFF5BC0DDFF1200160E616E0F0141
:102C90009F0E5B6F7B0E606E1200FE0EDBCFE6FFB9
:102CA00061EC12F0E552E5521200F7220900F5CF6F
:102CB000B0F00A00F5CFB1F01200010EE66EE66A40
:102CC000000EE66EE66A1200F76AB025F66EB151A4
:102CD000F722080012003251F66EF76AD890F636E5
:102CE000F7361200D950020FE96EDACFEAFFEF5043
:102CF0001200020EE66EE66AE66A1200A2C0E9FF62
:102D0000A3C0EAFF1200040DF3CF5AF0F4CF5BF03A
:102D1000000E5A26020EB3DF840EF2EF16F05DD8D5
:102D2000300EEE6E020EED6E120045DF020EE12651
:102D30001200020EE66EE66ADECFE6FFDDCFE6FFAA
:102D4000050ECDEF15F020DF8C0EEF6E2FDF840E19
:102D5000EF6E120039DFA40EE926000E120034DFF8
:102D6000AA0EE926000E120013DF18EF16F019DF85
:102D7000EF50800B1200BDDF540EE66E0F0EF7EF22
:102D800015F019DFE6521200FE0BEA36E96EAA0EC4
:102D9000E926000E1200FE0BEA36E96EA40EE926C3
:102DA000000E1200CFEC0FF05A6E060EE15E5A5084
:102DB0001200EA6AC10FE96E000E1200EA6ABE0F45
:102DC000E96E000E1200EDDEE850EF16120096DFFD
:102DD000EE52200EEF6E7EEF16F0020EE926000E88
:0C2DE000EA221200DEDEE850EF121200C2
:042DEC00020130515F
:102DF0001F0B010801E012003051600BE842E8426D
:102E0000E842E842E842010801E01200345103E0E0
:102E1000340501E012003151220A33E0030A26E0B2
:102E2000010A15E0210A0DE0010A01E0120000018B
:102E3000140EB06F000EB16F080EB36FB46BB28199
:102E400023D00001140EB06F000EB16F1DD036C23A
:102E5000B8F037C2B9F00001DF0EB56F020EB66FE1
:102E6000540EBA6F150EBB6FB78F12000001D80E4B
:102E7000B06F020EB16F070EB36FB46BC10EB26FBD
:102E8000120032C213F00001B28F12000201D86B9F
:102E90004B0ED96FDA6BDB6BDC6BDD6B080EDE6F14
:102EA0000B6A1A0EE66E010EE66E69EC11F0E55241
:102EB000E5521E0EE66E020EE66E69EC11F0E5526A
:102EC000E5521DD90001CC6BCD6B0C6A120045D9BF
:102ED00070D9050E551801E1565002E0000E14D0CD
:102EE0004CD90001CA515A1804E1CB515B1801E1D9
:102EF00006D943D90001CC515A1805E1CD515B18D0
:102F000002E10C6A116A010E2DD127D90B6A00016A
:102F1000CA51CB1102E1000E05D03DD9EF50800B14
:102F200001E0010E00092DE1FC0EDBCF5AF033D990
:102F3000EE52EF50D8805A5405E22DD9EE52FC0ED5
:102F4000EFCFDBFF0B6AFC0EDB500B5C19E20B5082
:102F5000EA6A980FE96E020EEA22EF50E66E0B5015
:102F6000E76EFD0EDBCFE9FFFE0EDBCFEAFFE75099
:102F7000E926000EEA22E552E750EF6E0B2AE3D76E
:102F8000BED80B50EFD0E9D8A0940C5007E1EED892
:102F9000FC0EDB50116E010E126E0C6EA084E2D09E
:102FA0000FD916E1D1D8F0D802E15B500BE0010E49
:102FB000DBCFE9FFDB2A020EDBCFEAFF01E3DB2AEE
:102FC000EF50F1E1D3D8DF50116E010E126E0C6E8E
:102FD000A084030EE15C02E2E16AE552E16EC2D038
:102FE000EFD817E1B1D8D0D802E15B500CE0010E68
:102FF000DBCFF6FFDB2A020EDBCFF7FF01E3DB2A94
:103000000800F550F0E1B2D8DF50116E126A010EDF
:103010000C6EA084030EE15C02E2E16AE552E16E0F
:10302000A1D09BD8020EE126A0940001CC51CD1175
:1030300002E1000E08D0CCC0E9FFCDC0EAFFEF509E
:10304000800B01E0010E000906E1030E0C5C01E1BA
:103050000C6A0C5002E1A0844BD0020E0C5C08E11B
:10306000E66A000EE66EE66A67D8030E0C6E3FD085
:103070000C043DE1400E5A6E5B6A11505A5C000E22
:103080005B5802E2400E01D01150DF6EDF50115C40
:10309000116E580E0F6E020E106E010EDFCFDBFFA9
:1030A00012500BE1010EDB5012E00DC0F6FF0EC016
:1030B000F7FF0800F55030D8F5D7010EDB5007E0D8
:1030C0000DC0E9FF0EC0EAFFEF5026D8F6D7115029
:1030D00007E1400EDF5C02E1020E01D0030E0C6E30
:1030E000DFCFE6FF580EE66E020EE66E25D8A0840E
:1030F000020EE15C02E2E16AE552E16E33D0400E7D
:10310000E66E980EE66E020EE66EE66A49D8F3CFDA
:10311000CAF0F4CFCBF01200E66E0FC0E9FF10C08A
:10312000EAFFE552E750EF6E0F2A000E10220D2A3B
:103130000E22010EDB061200010EE66E31D8F3CF2F
:10314000CCF0F4CFCDF01200DF6A33D8DE5255C098
:10315000DEFF56C0DDFFDD521200D9CFE6FFE1CF22
:10316000D9FF1200E552E7CFD9FF1200FD0EDBCFE9
:103170000DF0FE0EDBCF0EF01200FB0EDBCF5AF08F
:10318000FC0EDBCF5BF01200DF2ADF505A6E5B6A69
:10319000FF0E5A181200CAC0E9FFCBC0EAFF1200A6
:1031A000020EE66E8DEC11F05A6E050EE15E5A507D
:1031B0001200FD0EDBCF55F0FE0EDBCF56F01200F5
:0C31C000CCDF030EE126A0940C5012009E
:0431CC0087D8020E90
:1031D000E126FE0EDB5002E0000E01D0050EDF6E90
:1031E000010EDB6ADF5073D80EE2010EDBCFE6FF83
:1031F00036D8E5525A6E010E7AD85A5C01E0DF6A81
:10320000010EDB2AEFD7DF5018E0050EE66E27D857
:10321000E552DF6E0E0EDF5C1BE2010EDFCFDBFF3F
:103220000E0E55D804E2010E4AD8DB2AF9D70E0E4D
:10323000E66E050EE66E64D80BD0E66AE66A60D8E4
:10324000DE520E0EDD6E010EDB0639D8DB50FBE1DF
:10325000020EE15C02E2E16AE552E16E44D03ED842
:10326000E652FE0EDB50A96EA69EA69CF29EA6809C
:10327000A850DF6EF28EDF50E55235D02FD8FE0E0B
:10328000DBCFE6FFECDFE552F36EFD0EDB50F35CC7
:1032900015E0A198F29EFE0EDB50A96EFD0EDB50EC
:1032A000A86EA69EA69CA684550EA76EAA0EA76E13
:1032B000A682F28EA1A8FED7A694A19814D017D802
:1032C000E66E010EDBCFE6FF1BD8010E1200F36E97
:1032D000010EDBCFF4FFF350F45C1200D9CFE6FF10
:1032E000E1CFD9FF1200E552E7CFD9FF1200DB5042
:1032F000F76AE00FF66E340EF7220800F550120060
:08330000BDDFE552E5521200A9
:08330800120100020200002086
:10331000D8040A001501010200010902430002015C
:1033200000C064090400000102020100052400102D
:1033300001042402020524060001052401000107FE
:103340000581030A000109040100020A00000007C8
:103350000502024000000705820240000004030944
:103360000434034D006900630072006F006300685D
:103370000069007000200054006500630068006E62
:10338000006F006C006F0067007900200049006E3C
:103390000063002E00340347006500730074004989
:1033A000004300200042007200690064006700656D
:1033B000000000000000000000000000000000000D
:1033C0000000000000000000001A335D33613395F7
:0133D00033C9
:0E33D2001E0EF66E100EF76E000EF86E010164
:1033E0000900F550E56F0900F550E66F03E1E56768
:1033F00001D03DD00900F550E06F0900F550E16FB4
:103400000900F550E26F09000900F550E96E090066
:10341000F550EA6E090009000900F550E36F090054
:10342000F550E46F09000900F6CFE7F1F7CFE8F1B6
:10343000F8CFE9F1E0C1F6FFE1C1F7FFE2C1F8FF23
:103440000101E35302E1E45307E00900F550EE6E99
:10345000E307F8E2E407F9D7E7C1F6FFE8C1F7FFB1
:10346000E9C1F8FF0101E507000EE65BBFD71200D6
:10347000FE0EE3CFE9FFFF0EE3CFEAFFE9CFF3FF54
:10348000EACFF4FFFB0EE35003E1FC0EE35009E04A
:10349000FB0EE30602E2FC0EE306FD0EE350EE6EC9
:0434A000F1D712004E
:0C34A400000EF36E00EE00F0030E01D8E5
:1034B0001200EA6002D0EE6AFCD7F350E960120015
:0434C000EE6AFCD7DD
:0C34C40011EE00F021EE00F0F86A599CB7
:1034D000E9EC19F003EC08F043EC0AF0FBD712001A
:0E34E00042436667000E430100002A040014F8
:0234EE000000DC
:0A34F000002A0000000400000000A4
:020000040030CA
:0100000000FF
:0100010032CC
:0100020021DC
:010003001EDE
:0100050000FA
:010006008178
:0100080003F4
:01000900C036
:01000A0003F2
:01000B00E014
:01000C0003F0
:01000D0040B2
:00000001FF
